{"abi":[{"type":"function","name":"balances","inputs":[{"name":"","type":"address","internalType":"address"}],"outputs":[{"name":"","type":"uint256","internalType":"uint256"}],"stateMutability":"view"},{"type":"function","name":"deposit","inputs":[],"outputs":[],"stateMutability":"payable"},{"type":"function","name":"getExternalBalance","inputs":[],"outputs":[{"name":"","type":"uint256","internalType":"uint256"}],"stateMutability":"view"},{"type":"function","name":"totalAssets","inputs":[],"outputs":[{"name":"","type":"uint256","internalType":"uint256"}],"stateMutability":"view"},{"type":"function","name":"withdraw","inputs":[{"name":"_amount","type":"uint256","internalType":"uint256"}],"outputs":[],"stateMutability":"nonpayable"},{"type":"event","name":"Deposit","inputs":[{"name":"user","type":"address","indexed":true,"internalType":"address"},{"name":"amount","type":"uint256","indexed":false,"internalType":"uint256"}],"anonymous":false},{"type":"event","name":"Withdraw","inputs":[{"name":"user","type":"address","indexed":true,"internalType":"address"},{"name":"amount","type":"uint256","indexed":false,"internalType":"uint256"}],"anonymous":false}],"bytecode":{"object":"0x608060405234801561001057600080fd5b506107d0806100206000396000f3fe60806040526004361061004a5760003560e01c806301e1d1141461004f5780630cc390621461007a57806327e235e3146100a55780632e1a7d4d146100e2578063d0e30db01461010b575b600080fd5b34801561005b57600080fd5b50610064610115565b6040516100719190610442565b60405180910390f35b34801561008657600080fd5b5061008f61011b565b60405161009c9190610442565b60405180910390f35b3480156100b157600080fd5b506100cc60048036038101906100c791906104c0565b610123565b6040516100d99190610442565b60405180910390f35b3480156100ee57600080fd5b5061010960048036038101906101049190610519565b61013b565b005b610113610328565b005b60015481565b600047905090565b60006020528060005260406000206000915090505481565b806000803373ffffffffffffffffffffffffffffffffffffffff1673ffffffffffffffffffffffffffffffffffffffff1681526020019081526020016000205410156101bc576040517f08c379a00000000000000000000000000000000000000000000000000000000081526004016101b3906105a3565b60405180910390fd5b806000803373ffffffffffffffffffffffffffffffffffffffff1673ffffffffffffffffffffffffffffffffffffffff168152602001908152602001600020600082825461020a91906105f2565b92505081905550806001600082825461022391906105f2565b9250508190555060003373ffffffffffffffffffffffffffffffffffffffff168260405161025090610657565b60006040518083038185875af1925050503d806000811461028d576040519150601f19603f3d011682016040523d82523d6000602084013e610292565b606091505b50509050806102d6576040517f08c379a00000000000000000000000000000000000000000000000000000000081526004016102cd906106b8565b60405180910390fd5b3373ffffffffffffffffffffffffffffffffffffffff167f884edad9ce6fa2440d8a54cc123490eb96d2768479d49ff9c7366125a94243648360405161031c9190610442565b60405180910390a25050565b6000341161036b576040517f08c379a000000000000000000000000000000000000000000000000000000000815260040161036290610724565b60405180910390fd5b346000803373ffffffffffffffffffffffffffffffffffffffff1673ffffffffffffffffffffffffffffffffffffffff16815260200190815260200160002060008282546103b99190610744565b9250508190555034600160008282546103d29190610744565b925050819055503373ffffffffffffffffffffffffffffffffffffffff167fe1fffcc4923d04b559f4d29a8bfc6cda04eb5b0d3c460751c2402c5c5cc9109c3460405161041f9190610442565b60405180910390a2565b6000819050919050565b61043c81610429565b82525050565b60006020820190506104576000830184610433565b92915050565b600080fd5b600073ffffffffffffffffffffffffffffffffffffffff82169050919050565b600061048d82610462565b9050919050565b61049d81610482565b81146104a857600080fd5b50565b6000813590506104ba81610494565b92915050565b6000602082840312156104d6576104d561045d565b5b60006104e4848285016104ab565b91505092915050565b6104f681610429565b811461050157600080fd5b50565b600081359050610513816104ed565b92915050565b60006020828403121561052f5761052e61045d565b5b600061053d84828501610504565b91505092915050565b600082825260208201905092915050565b7f696e73756666696369656e742062616c616e6365000000000000000000000000600082015250565b600061058d601483610546565b915061059882610557565b602082019050919050565b600060208201905081810360008301526105bc81610580565b9050919050565b7f4e487b7100000000000000000000000000000000000000000000000000000000600052601160045260246000fd5b60006105fd82610429565b915061060883610429565b92508282101561061b5761061a6105c3565b5b828203905092915050565b600081905092915050565b50565b6000610641600083610626565b915061064c82610631565b600082019050919050565b600061066282610634565b9150819050919050565b7f7472616e73666572206661696c65640000000000000000000000000000000000600082015250565b60006106a2600f83610546565b91506106ad8261066c565b602082019050919050565b600060208201905081810360008301526106d181610695565b9050919050565b7f596f752063616e206e6f74206465706f73697420300000000000000000000000600082015250565b600061070e601583610546565b9150610719826106d8565b602082019050919050565b6000602082019050818103600083015261073d81610701565b9050919050565b600061074f82610429565b915061075a83610429565b9250827fffffffffffffffffffffffffffffffffffffffffffffffffffffffffffffffff0382111561078f5761078e6105c3565b5b82820190509291505056fea2646970667358221220e091f486f362e074877ed029505bc91df81178d2fa510b0d2bdf158e5806332064736f6c634300080d0033","linkReferences":{}},"methodIdentifiers":{"balances(address)":"27e235e3","deposit()":"d0e30db0","getExternalBalance()":"0cc39062","totalAssets()":"01e1d114","withdraw(uint256)":"2e1a7d4d"},"id":21}